{
  "_format": "hh-sol-artifact-1",
  "contractName": "SocialMediaDapp",
  "sourceName": "contracts/SocialMedia.sol",
  "abi": [
    {
      "inputs": [],
      "stateMutability": "nonpayable",
      "type": "constructor"
    },
    {
      "anonymous": false,
      "inputs": [
        {
          "indexed": false,
          "internalType": "uint256",
          "name": "groupId",
          "type": "uint256"
        },
        {
          "indexed": false,
          "internalType": "address",
          "name": "admin",
          "type": "address"
        },
        {
          "indexed": false,
          "internalType": "string",
          "name": "name",
          "type": "string"
        },
        {
          "indexed": false,
          "internalType": "string",
          "name": "description",
          "type": "string"
        }
      ],
      "name": "GroupCreated",
      "type": "event"
    },
    {
      "anonymous": false,
      "inputs": [
        {
          "indexed": false,
          "internalType": "uint256",
          "name": "groupId",
          "type": "uint256"
        },
        {
          "indexed": false,
          "internalType": "address",
          "name": "sender",
          "type": "address"
        },
        {
          "indexed": false,
          "internalType": "string",
          "name": "message",
          "type": "string"
        }
      ],
      "name": "MessageAdded",
      "type": "event"
    },
    {
      "anonymous": false,
      "inputs": [
        {
          "indexed": false,
          "internalType": "uint256",
          "name": "groupId",
          "type": "uint256"
        },
        {
          "indexed": false,
          "internalType": "address",
          "name": "user",
          "type": "address"
        }
      ],
      "name": "UserJoinedGroup",
      "type": "event"
    },
    {
      "inputs": [],
      "name": "_postID",
      "outputs": [
        {
          "internalType": "uint256",
          "name": "",
          "type": "uint256"
        }
      ],
      "stateMutability": "view",
      "type": "function"
    },
    {
      "inputs": [],
      "name": "_userID",
      "outputs": [
        {
          "internalType": "uint256",
          "name": "",
          "type": "uint256"
        }
      ],
      "stateMutability": "view",
      "type": "function"
    },
    {
      "inputs": [
        {
          "internalType": "string",
          "name": "_comment",
          "type": "string"
        },
        {
          "internalType": "uint256",
          "name": "_postID",
          "type": "uint256"
        }
      ],
      "name": "addComment",
      "outputs": [],
      "stateMutability": "nonpayable",
      "type": "function"
    },
    {
      "inputs": [],
      "name": "admin",
      "outputs": [
        {
          "internalType": "address",
          "name": "",
          "type": "address"
        }
      ],
      "stateMutability": "view",
      "type": "function"
    },
    {
      "inputs": [
        {
          "internalType": "string",
          "name": "groupName",
          "type": "string"
        },
        {
          "internalType": "string",
          "name": "groupDescription",
          "type": "string"
        }
      ],
      "name": "createGroup",
      "outputs": [],
      "stateMutability": "nonpayable",
      "type": "function"
    },
    {
      "inputs": [
        {
          "internalType": "string",
          "name": "_type",
          "type": "string"
        },
        {
          "internalType": "string",
          "name": "_description",
          "type": "string"
        },
        {
          "internalType": "string",
          "name": "_postURL",
          "type": "string"
        }
      ],
      "name": "createPost",
      "outputs": [],
      "stateMutability": "nonpayable",
      "type": "function"
    },
    {
      "inputs": [
        {
          "internalType": "string",
          "name": "_name",
          "type": "string"
        }
      ],
      "name": "createProfile",
      "outputs": [],
      "stateMutability": "nonpayable",
      "type": "function"
    },
    {
      "inputs": [
        {
          "internalType": "uint256",
          "name": "id",
          "type": "uint256"
        }
      ],
      "name": "deletePost",
      "outputs": [],
      "stateMutability": "nonpayable",
      "type": "function"
    },
    {
      "inputs": [
        {
          "internalType": "uint256",
          "name": "_postID",
          "type": "uint256"
        },
        {
          "internalType": "string",
          "name": "_description",
          "type": "string"
        }
      ],
      "name": "editPost",
      "outputs": [],
      "stateMutability": "nonpayable",
      "type": "function"
    },
    {
      "inputs": [
        {
          "internalType": "address",
          "name": "_address",
          "type": "address"
        }
      ],
      "name": "follow",
      "outputs": [],
      "stateMutability": "nonpayable",
      "type": "function"
    },
    {
      "inputs": [],
      "name": "getAddresses",
      "outputs": [
        {
          "internalType": "address[]",
          "name": "",
          "type": "address[]"
        }
      ],
      "stateMutability": "view",
      "type": "function"
    },
    {
      "inputs": [],
      "name": "getAllAppUser",
      "outputs": [
        {
          "components": [
            {
              "internalType": "address",
              "name": "owner",
              "type": "address"
            },
            {
              "internalType": "string",
              "name": "name",
              "type": "string"
            },
            {
              "internalType": "uint256",
              "name": "timeCreated",
              "type": "uint256"
            },
            {
              "internalType": "uint256",
              "name": "id",
              "type": "uint256"
            },
            {
              "internalType": "uint256",
              "name": "postCount",
              "type": "uint256"
            },
            {
              "internalType": "uint256",
              "name": "followerCount",
              "type": "uint256"
            },
            {
              "internalType": "uint256",
              "name": "followingCount",
              "type": "uint256"
            }
          ],
          "internalType": "struct SocialMediaDapp.AllUserStruck[]",
          "name": "",
          "type": "tuple[]"
        }
      ],
      "stateMutability": "view",
      "type": "function"
    },
    {
      "inputs": [],
      "name": "getAllGroups",
      "outputs": [
        {
          "internalType": "uint256[]",
          "name": "",
          "type": "uint256[]"
        }
      ],
      "stateMutability": "view",
      "type": "function"
    },
    {
      "inputs": [],
      "name": "getAllPosts",
      "outputs": [
        {
          "components": [
            {
              "internalType": "address",
              "name": "author",
              "type": "address"
            },
            {
              "internalType": "string",
              "name": "postType",
              "type": "string"
            },
            {
              "internalType": "string",
              "name": "postDescription",
              "type": "string"
            },
            {
              "internalType": "string",
              "name": "postURL",
              "type": "string"
            },
            {
              "internalType": "uint256",
              "name": "timeCreated",
              "type": "uint256"
            },
            {
              "internalType": "uint256",
              "name": "postID",
              "type": "uint256"
            },
            {
              "internalType": "uint256",
              "name": "likes",
              "type": "uint256"
            },
            {
              "internalType": "string[]",
              "name": "comments",
              "type": "string[]"
            }
          ],
          "internalType": "struct SocialMediaDapp.Post[]",
          "name": "",
          "type": "tuple[]"
        }
      ],
      "stateMutability": "view",
      "type": "function"
    },
    {
      "inputs": [
        {
          "internalType": "address",
          "name": "_address",
          "type": "address"
        }
      ],
      "name": "getFollowers",
      "outputs": [
        {
          "internalType": "address[]",
          "name": "",
          "type": "address[]"
        }
      ],
      "stateMutability": "view",
      "type": "function"
    },
    {
      "inputs": [
        {
          "internalType": "address",
          "name": "_address",
          "type": "address"
        }
      ],
      "name": "getFollowing",
      "outputs": [
        {
          "internalType": "address[]",
          "name": "",
          "type": "address[]"
        }
      ],
      "stateMutability": "view",
      "type": "function"
    },
    {
      "inputs": [
        {
          "internalType": "uint256",
          "name": "groupId",
          "type": "uint256"
        }
      ],
      "name": "getGroupDetails",
      "outputs": [
        {
          "internalType": "address[]",
          "name": "members",
          "type": "address[]"
        },
        {
          "internalType": "string",
          "name": "name",
          "type": "string"
        },
        {
          "internalType": "string",
          "name": "description",
          "type": "string"
        },
        {
          "internalType": "uint256",
          "name": "groupID",
          "type": "uint256"
        }
      ],
      "stateMutability": "view",
      "type": "function"
    },
    {
      "inputs": [
        {
          "internalType": "uint256",
          "name": "groupId",
          "type": "uint256"
        }
      ],
      "name": "getGroupMessages",
      "outputs": [
        {
          "internalType": "string[]",
          "name": "",
          "type": "string[]"
        }
      ],
      "stateMutability": "view",
      "type": "function"
    },
    {
      "inputs": [
        {
          "internalType": "address",
          "name": "_address",
          "type": "address"
        }
      ],
      "name": "getPosts",
      "outputs": [
        {
          "components": [
            {
              "internalType": "address",
              "name": "author",
              "type": "address"
            },
            {
              "internalType": "string",
              "name": "postType",
              "type": "string"
            },
            {
              "internalType": "string",
              "name": "postDescription",
              "type": "string"
            },
            {
              "internalType": "string",
              "name": "postURL",
              "type": "string"
            },
            {
              "internalType": "uint256",
              "name": "timeCreated",
              "type": "uint256"
            },
            {
              "internalType": "uint256",
              "name": "postID",
              "type": "uint256"
            },
            {
              "internalType": "uint256",
              "name": "likes",
              "type": "uint256"
            },
            {
              "internalType": "string[]",
              "name": "comments",
              "type": "string[]"
            }
          ],
          "internalType": "struct SocialMediaDapp.Post[]",
          "name": "",
          "type": "tuple[]"
        }
      ],
      "stateMutability": "view",
      "type": "function"
    },
    {
      "inputs": [
        {
          "internalType": "uint256",
          "name": "_postID",
          "type": "uint256"
        }
      ],
      "name": "getSinglePost",
      "outputs": [
        {
          "internalType": "address",
          "name": "",
          "type": "address"
        },
        {
          "internalType": "string",
          "name": "",
          "type": "string"
        },
        {
          "internalType": "string",
          "name": "",
          "type": "string"
        },
        {
          "internalType": "string",
          "name": "",
          "type": "string"
        },
        {
          "internalType": "uint256",
          "name": "",
          "type": "uint256"
        },
        {
          "internalType": "uint256",
          "name": "",
          "type": "uint256"
        },
        {
          "internalType": "uint256",
          "name": "",
          "type": "uint256"
        },
        {
          "internalType": "string[]",
          "name": "",
          "type": "string[]"
        }
      ],
      "stateMutability": "view",
      "type": "function"
    },
    {
      "inputs": [],
      "name": "getUserCount",
      "outputs": [
        {
          "internalType": "uint256",
          "name": "",
          "type": "uint256"
        }
      ],
      "stateMutability": "view",
      "type": "function"
    },
    {
      "inputs": [
        {
          "internalType": "uint256",
          "name": "",
          "type": "uint256"
        }
      ],
      "name": "groups",
      "outputs": [
        {
          "internalType": "string",
          "name": "name",
          "type": "string"
        },
        {
          "internalType": "string",
          "name": "description",
          "type": "string"
        },
        {
          "internalType": "uint256",
          "name": "groupID",
          "type": "uint256"
        }
      ],
      "stateMutability": "view",
      "type": "function"
    },
    {
      "inputs": [
        {
          "internalType": "uint256",
          "name": "groupId",
          "type": "uint256"
        }
      ],
      "name": "joinGroup",
      "outputs": [],
      "stateMutability": "nonpayable",
      "type": "function"
    },
    {
      "inputs": [
        {
          "internalType": "uint256",
          "name": "_postID",
          "type": "uint256"
        }
      ],
      "name": "likePost",
      "outputs": [],
      "stateMutability": "nonpayable",
      "type": "function"
    },
    {
      "inputs": [
        {
          "internalType": "address",
          "name": "",
          "type": "address"
        }
      ],
      "name": "profiles",
      "outputs": [
        {
          "internalType": "address",
          "name": "owner",
          "type": "address"
        },
        {
          "internalType": "string",
          "name": "name",
          "type": "string"
        },
        {
          "internalType": "uint256",
          "name": "timeCreated",
          "type": "uint256"
        },
        {
          "internalType": "uint256",
          "name": "id",
          "type": "uint256"
        },
        {
          "internalType": "uint256",
          "name": "postCount",
          "type": "uint256"
        },
        {
          "internalType": "uint256",
          "name": "followerCount",
          "type": "uint256"
        },
        {
          "internalType": "uint256",
          "name": "followingCount",
          "type": "uint256"
        }
      ],
      "stateMutability": "view",
      "type": "function"
    },
    {
      "inputs": [
        {
          "internalType": "address",
          "name": "friend_key",
          "type": "address"
        }
      ],
      "name": "readMessage",
      "outputs": [
        {
          "components": [
            {
              "internalType": "address",
              "name": "sender",
              "type": "address"
            },
            {
              "internalType": "uint256",
              "name": "timestamp",
              "type": "uint256"
            },
            {
              "internalType": "string",
              "name": "msg",
              "type": "string"
            }
          ],
          "internalType": "struct SocialMediaDapp.message[]",
          "name": "",
          "type": "tuple[]"
        }
      ],
      "stateMutability": "view",
      "type": "function"
    },
    {
      "inputs": [
        {
          "internalType": "uint256",
          "name": "groupId",
          "type": "uint256"
        },
        {
          "internalType": "string",
          "name": "message",
          "type": "string"
        }
      ],
      "name": "sendGroupMessage",
      "outputs": [],
      "stateMutability": "nonpayable",
      "type": "function"
    },
    {
      "inputs": [
        {
          "internalType": "address",
          "name": "friend_key",
          "type": "address"
        },
        {
          "internalType": "string",
          "name": "_msg",
          "type": "string"
        }
      ],
      "name": "sendMessage",
      "outputs": [],
      "stateMutability": "nonpayable",
      "type": "function"
    },
    {
      "inputs": [],
      "name": "totalGroups",
      "outputs": [
        {
          "internalType": "uint256",
          "name": "",
          "type": "uint256"
        }
      ],
      "stateMutability": "view",
      "type": "function"
    },
    {
      "inputs": [],
      "name": "transferEther",
      "outputs": [],
      "stateMutability": "payable",
      "type": "function"
    },
    {
      "inputs": [
        {
          "internalType": "address",
          "name": "_address",
          "type": "address"
        }
      ],
      "name": "unfollow",
      "outputs": [],
      "stateMutability": "nonpayable",
      "type": "function"
    },
    {
      "inputs": [
        {
          "internalType": "uint256",
          "name": "_postID",
          "type": "uint256"
        }
      ],
      "name": "unlikePost",
      "outputs": [],
      "stateMutability": "nonpayable",
      "type": "function"
    }
  ],
  "bytecode": "0x608060405234801561001057600080fd5b50600080546001600160a01b03191633179055614977806100326000396000f3fe6080604052600436106101e35760003560e01c8063b5cb15f711610102578063de6f24bb11610095578063f0fb254311610064578063f0fb25431461059b578063f851a440146105c8578063fa188de914610600578063fa99654a1461062057600080fd5b8063de6f24bb14610525578063e8a4a1eb14610545578063eea3ae9114610565578063eed02e4b1461057b57600080fd5b8063c75f2893116100d1578063c75f2893146104c7578063c999a7c7146104dd578063c9b25f0f146104fd578063d8236dff1461050557600080fd5b8063b5cb15f71461042b578063b86e6f0914610440578063bbe1562714610474578063c2fe2022146104a757600080fd5b80634dbf27cc1161017a57806396a3d8d71161014957806396a3d8d7146103975780639de5e76a146103b7578063a24d41de146103e7578063a39fac121461040957600080fd5b80634dbf27cc14610304578063725009d3146103245780638865fb751461034457806396324bd41461036857600080fd5b8063255e9c11116101b6578063255e9c111461027557806330561100146102a2578063334c3f0e146102c45780634caf9d0b146102e457600080fd5b8063015a4ead146101e8578063094cd5ee1461020a5780631e4a97dd1461022a57806321cd3cae1461024a575b600080fd5b3480156101f457600080fd5b50610208610203366004613c33565b610640565b005b34801561021657600080fd5b50610208610225366004613c55565b610a52565b34801561023657600080fd5b50610208610245366004613d10565b610bbd565b34801561025657600080fd5b5061025f610d09565b60405161026c9190613d73565b60405180910390f35b34801561028157600080fd5b50610295610290366004613c33565b610da0565b60405161026c9190613dfd565b3480156102ae57600080fd5b506102b7610ed3565b60405161026c9190613eda565b3480156102d057600080fd5b506102086102df366004614005565b6113b4565b3480156102f057600080fd5b506102b76102ff366004613c33565b611858565b34801561031057600080fd5b5061020861031f366004613c33565b611bbd565b34801561033057600080fd5b5061020861033f366004613c55565b611ef0565b34801561035057600080fd5b5061035a600a5481565b60405190815260200161026c565b34801561037457600080fd5b50610388610383366004613c55565b61207b565b60405161026c93929190614046565b3480156103a357600080fd5b506102086103b236600461407c565b6121af565b3480156103c357600080fd5b506103d76103d2366004613c55565b61230e565b60405161026c949392919061410b565b3480156103f357600080fd5b506103fc6124c0565b60405161026c9190614156565b34801561041557600080fd5b5061041e6125f9565b60405161026c91906141fc565b34801561043757600080fd5b5060015461035a565b34801561044c57600080fd5b5061046061045b366004613c55565b61265b565b60405161026c98979695949392919061420f565b34801561048057600080fd5b5061049461048f366004613c33565b612ce8565b60405161026c9796959493929190614291565b3480156104b357600080fd5b5061041e6104c2366004613c33565b612db5565b3480156104d357600080fd5b5061035a60085481565b3480156104e957600080fd5b506102086104f83660046142df565b612e69565b610208612efa565b34801561051157600080fd5b5061041e610520366004613c33565b612fe2565b34801561053157600080fd5b5061020861054036600461431b565b61305b565b34801561055157600080fd5b5061020861056036600461436d565b613136565b34801561057157600080fd5b5061035a60095481565b34801561058757600080fd5b50610208610596366004613c55565b61341c565b3480156105a757600080fd5b506105bb6105b6366004613c55565b6134f5565b60405161026c9190614406565b3480156105d457600080fd5b506000546105e8906001600160a01b031681565b6040516001600160a01b03909116815260200161026c565b34801561060c57600080fd5b5061020861061b366004613c55565b61365b565b34801561062c57600080fd5b5061020861063b366004614419565b6137e2565b336000908152600360205260409020546001600160a01b031661067e5760405162461bcd60e51b81526004016106759061444b565b60405180910390fd5b6001600160a01b038082166000908152600360205260409020548291166106b75760405162461bcd60e51b8152600401610675906144a0565b816001600160a01b03811633036106e05760405162461bcd60e51b8152600401610675906144d7565b3360009081526005602090815260408083206001600160a01b0387811685529252909120541661076a5760405162461bcd60e51b815260206004820152602f60248201527f4552524f523a203c596f7520616c726561647920646f206e6f7420666f6c6c6f60448201526e3b903a3434b990383937b334b6329f60891b6064820152608401610675565b6001600160a01b0383166000908152600460209081526040808320338452909152812080546001600160a01b0319168155906107a96001830182613a78565b600282016000905560038201600090556004820160009055600582016000905560068201600090556007820160006107e19190613ab2565b6107ef600883016000613ab2565b50503360009081526005602090815260408083206001600160a01b0387168452909152812080546001600160a01b0319168155906108306001830182613a78565b600282016000905560038201600090556004820160009055600582016000905560068201600090556007820160006108689190613ab2565b610876600883016000613ab2565b505060005b6001600160a01b03841660009081526003602052604090206005015481101561096f576001600160a01b03841660009081526003602052604090206007018054339190839081106108ce576108ce614521565b6000918252602090912001546001600160a01b03160361095d576001600160a01b038416600090815260036020526040902060070180548290811061091557610915614521565b6000918252602080832090910180546001600160a01b03191690556001600160a01b038616825260039052604081206005018054916109538361454d565b919050555061096f565b8061096781614564565b91505061087b565b5060005b33600090815260036020526040902060060154811015610a4c5733600090815260036020526040902060080180546001600160a01b0386169190839081106109bd576109bd614521565b6000918252602090912001546001600160a01b031603610a3a573360009081526003602052604090206008018054829081106109fb576109fb614521565b6000918252602080832090910180546001600160a01b03191690553382526003905260408120600601805491610a308361454d565b9190505550610a4c565b80610a4481614564565b915050610973565b50505050565b336000908152600360205260409020546001600160a01b0316610a875760405162461bcd60e51b81526004016106759061444b565b336000908152600660205260408120805483908110610aa857610aa8614521565b60009182526020909120600890910201546001600160a01b031603610b055760405162461bcd60e51b8152602060048201526013602482015272141bdcdd08191bd95cc81b9bdd08195e1a5cdd606a1b6044820152606401610675565b336000908152600660205260409020805482908110610b2657610b26614521565b60009182526020822060089091020180546001600160a01b031916815590610b516001830182613a78565b610b5f600283016000613a78565b610b6d600383016000613a78565b600482016000905560058201600090556006820160009055600782016000610b959190613ad0565b5050336000908152600360205260408120600401805491610bb58361454d565b919050555050565b6000546001600160a01b03163314610c215760405162461bcd60e51b815260206004820152602160248201527f4f6e6c792061646d696e2063616e2063616c6c20746869732066756e6374696f6044820152603760f91b6064820152608401610675565b60088054906000610c3183614564565b9091555050600854600081815260076020908152604082208254815460018101835582855292842090920180546001600160a01b0319166001600160a01b039093169290921790915590829052600201610c8b8482614615565b506000818152600760205260409020600301610ca78382614615565b50600081815260076020526040808220600401839055905490517fc09f0a6237c1950b9ce4e83dd96079ceb2154a5654481a8ae558cbe79e64473f91610cfc9184916001600160a01b031690879087906146ce565b60405180910390a1505050565b606060006008546001600160401b03811115610d2757610d27613c6e565b604051908082528060200260200182016040528015610d50578160200160208202803683370190505b50905060005b600854811015610d9a57610d6b816001614715565b828281518110610d7d57610d7d614521565b602090810291909101015280610d9281614564565b915050610d56565b50919050565b60606000610dae3384613967565b9050600b6000828152602001908152602001600020805480602002602001604051908101604052809291908181526020016000905b82821015610ec7576000848152602090819020604080516060810182526003860290920180546001600160a01b0316835260018101549383019390935260028301805492939291840191610e369061457d565b80601f0160208091040260200160405190810160405280929190818152602001828054610e629061457d565b8015610eaf5780601f10610e8457610100808354040283529160200191610eaf565b820191906000526020600020905b815481529060010190602001808311610e9257829003601f168201915b50505050508152505081526020019060010190610de3565b50505050915050919050565b60606000805b600154811015610f3d576006600060018381548110610efa57610efa614521565b60009182526020808320909101546001600160a01b03168352820192909252604001902054610f299083614715565b915080610f3581614564565b915050610ed9565b506000816001600160401b03811115610f5857610f58613c6e565b604051908082528060200260200182016040528015610fda57816020015b610fc760405180610100016040528060006001600160a01b03168152602001606081526020016060815260200160608152602001600081526020016000815260200160008152602001606081525090565b815260200190600190039081610f765790505b5090506000805b6001548110156113ab5760005b600660006001848154811061100557611005614521565b60009182526020808320909101546001600160a01b0316835282019290925260400190205481101561139857600660006001848154811061104857611048614521565b60009182526020808320909101546001600160a01b03168352820192909252604001902080548290811061107e5761107e614521565b600091825260209182902060408051610100810190915260089092020180546001600160a01b0316825260018101805492939192918401916110bf9061457d565b80601f01602080910402602001604051908101604052809291908181526020018280546110eb9061457d565b80156111385780601f1061110d57610100808354040283529160200191611138565b820191906000526020600020905b81548152906001019060200180831161111b57829003601f168201915b505050505081526020016002820180546111519061457d565b80601f016020809104026020016040519081016040528092919081815260200182805461117d9061457d565b80156111ca5780601f1061119f576101008083540402835291602001916111ca565b820191906000526020600020905b8154815290600101906020018083116111ad57829003601f168201915b505050505081526020016003820180546111e39061457d565b80601f016020809104026020016040519081016040528092919081815260200182805461120f9061457d565b801561125c5780601f106112315761010080835404028352916020019161125c565b820191906000526020600020905b81548152906001019060200180831161123f57829003601f168201915b5050505050815260200160048201548152602001600582015481526020016006820154815260200160078201805480602002602001604051908101604052809291908181526020016000905b828210156113545783829060005260206000200180546112c79061457d565b80601f01602080910402602001604051908101604052809291908181526020018280546112f39061457d565b80156113405780601f1061131557610100808354040283529160200191611340565b820191906000526020600020905b81548152906001019060200180831161132357829003601f168201915b5050505050815260200190600101906112a8565b505050508152505084848151811061136e5761136e614521565b6020908102919091010152611384600184614715565b92508061139081614564565b915050610fee565b50806113a381614564565b915050610fe1565b50909392505050565b60408051600081526020810180835281519020849284926113d9918591859101614728565b604051602081830303815290604052805190602001200361143c5760405162461bcd60e51b815260206004820152601e60248201527f4552524f523a203c496e7075742063616e6e6f7420626520656d7074793e00006044820152606401610675565b336000908152600360205260409020546001600160a01b0316156114b65760405162461bcd60e51b815260206004820152602b60248201527f4552524f523a203c596f75206861766520616c7265616479206372656174656460448201526a103090383937b334b6329f60a91b6064820152608401610675565b60006001600160a01b0316600285856040516114d3929190614728565b908152604051908190036020019020546001600160a01b0316146115395760405162461bcd60e51b815260206004820152601760248201527f4552524f523a203c557365726e616d652074616b656e3e0000000000000000006044820152606401610675565b600a805490600061154983614564565b9091555050600a5460405133906002906115669088908890614728565b908152602001604051809103902060006101000a8154816001600160a01b0302191690836001600160a01b03160217905550604051806101200160405280336001600160a01b0316815260200186868080601f016020809104026020016040519081016040528093929190818152602001838380828437600092018290525093855250504260208401525060408201849052606082018190526080820181905260a0820181905260c09091019060405190808252806020026020018201604052801561163c578160200160208202803683370190505b508152602001600060405190808252806020026020018201604052801561166d578160200160208202803683370190505b509052336000908152600360209081526040909120825181546001600160a01b0319166001600160a01b039091161781559082015160018201906116b19082614615565b5060408201516002820155606082015160038201556080820151600482015560a0820151600582015560c0820151600682015560e082015180516116ff916007840191602090910190613aee565b50610100820151805161171c916008840191602090910190613aee565b50506001805480820182556000919091527fb10e2d527612073b26eecdfd717e6a320cf44b4afac2b0732d9fcbe2b7fa0cf60180546001600160a01b031916339081179091556040805160e08101825291825280516020601f8901819004810282018101909252878152600c9350828201918990899081908401838280828437600092018290525093855250504260208085019190915260408401879052606084018390526080840183905260a09093018290525083546001808201865594825290829020835160079092020180546001600160a01b0319166001600160a01b0390921691909117815590820151919290919082019061181c9082614615565b5060408201518160020155606082015181600301556080820151816004015560a0820151816005015560c0820151816006015550505050505050565b6001600160a01b038082166000908152600360205260409020546060918391166118945760405162461bcd60e51b8152600401610675906144a0565b6001600160a01b038316600090815260066020908152604080832080548251818502810185019093528083529193909284015b82821015610ec75760008481526020908190206040805161010081019091526008850290910180546001600160a01b0316825260018101805492939192918401916119119061457d565b80601f016020809104026020016040519081016040528092919081815260200182805461193d9061457d565b801561198a5780601f1061195f5761010080835404028352916020019161198a565b820191906000526020600020905b81548152906001019060200180831161196d57829003601f168201915b505050505081526020016002820180546119a39061457d565b80601f01602080910402602001604051908101604052809291908181526020018280546119cf9061457d565b8015611a1c5780601f106119f157610100808354040283529160200191611a1c565b820191906000526020600020905b8154815290600101906020018083116119ff57829003601f168201915b50505050508152602001600382018054611a359061457d565b80601f0160208091040260200160405190810160405280929190818152602001828054611a619061457d565b8015611aae5780601f10611a8357610100808354040283529160200191611aae565b820191906000526020600020905b815481529060010190602001808311611a9157829003601f168201915b5050505050815260200160048201548152602001600582015481526020016006820154815260200160078201805480602002602001604051908101604052809291908181526020016000905b82821015611ba6578382906000526020600020018054611b199061457d565b80601f0160208091040260200160405190810160405280929190818152602001828054611b459061457d565b8015611b925780601f10611b6757610100808354040283529160200191611b92565b820191906000526020600020905b815481529060010190602001808311611b7557829003601f168201915b505050505081526020019060010190611afa565b5050505081525050815260200190600101906118c7565b336000908152600360205260409020546001600160a01b0316611bf25760405162461bcd60e51b81526004016106759061444b565b6001600160a01b03808216600090815260036020526040902054829116611c2b5760405162461bcd60e51b8152600401610675906144a0565b816001600160a01b0381163303611c545760405162461bcd60e51b8152600401610675906144d7565b3360009081526005602090815260408083206001600160a01b0387811685529252909120541615611cd85760405162461bcd60e51b815260206004820152602860248201527f4552524f523a203c596f7520616c726561647920666f6c6c6f77207468697320604482015267383937b334b6329f60c11b6064820152608401610675565b3360008181526003602090815260408083206001600160a01b0388811685526004845282852095855294909252909120815481546001600160a01b031916931692909217825590600180820190611d3190840182614738565b5060028201548160020155600382015481600301556004820154816004015560058201548160050155600682015481600601556007820181600701908054611d7a929190613b53565b5060088281018054611d8f9284019190613b53565b5050506001600160a01b03808416600081815260036020908152604080832033845260058352818420948452939091529020815481546001600160a01b031916931692909217825590600180820190611dea90840182614738565b5060028201548160020155600382015481600301556004820154816004015560058201548160050155600682015481600601556007820181600701908054611e33929190613b53565b5060088281018054611e489284019190613b53565b5050506001600160a01b038316600081815260036020908152604080832060078101805460018082018355918652848620018054336001600160a01b031991821681179092559086529285206008018054918201815585529284209092018054909116841790559181526005909101805491611ec383614564565b9091555050336000908152600360205260408120600601805491611ee683614564565b9190505550505050565b336000908152600360205260409020546001600160a01b0316611f255760405162461bcd60e51b81526004016106759061444b565b60005b6001548110156120775760005b6006600060018481548110611f4c57611f4c614521565b60009182526020808320909101546001600160a01b0316835282019290925260400190205481101561206457826006600060018581548110611f9057611f90614521565b60009182526020808320909101546001600160a01b031683528201929092526040019020805483908110611fc657611fc6614521565b90600052602060002090600802016005015403612052576006600060018481548110611ff457611ff4614521565b60009182526020808320909101546001600160a01b03168352820192909252604001902080548290811061202a5761202a614521565b60009182526020822060066008909202010180549161204883614564565b9190505550612064565b8061205c81614564565b915050611f35565b508061206f81614564565b915050611f28565b5050565b60076020526000908152604090206002810180546120989061457d565b80601f01602080910402602001604051908101604052809291908181526020018280546120c49061457d565b80156121115780601f106120e657610100808354040283529160200191612111565b820191906000526020600020905b8154815290600101906020018083116120f457829003601f168201915b5050505050908060030180546121269061457d565b80601f01602080910402602001604051908101604052809291908181526020018280546121529061457d565b801561219f5780601f106121745761010080835404028352916020019161219f565b820191906000526020600020905b81548152906001019060200180831161218257829003601f168201915b5050505050908060040154905083565b60005b600154811015610a4c5760005b60066000600184815481106121d6576121d6614521565b60009182526020808320909101546001600160a01b031683528201929092526040019020548110156122fb5782600660006001858154811061221a5761221a614521565b60009182526020808320909101546001600160a01b03168352820192909252604001902080548390811061225057612250614521565b906000526020600020906008020160050154036122e957600660006001848154811061227e5761227e614521565b60009182526020808320909101546001600160a01b0316835282019290925260400190208054829081106122b4576122b4614521565b6000918252602080832060076008909302019190910180546001810182559083529120016122e385878361480c565b506122fb565b806122f381614564565b9150506121bf565b508061230681614564565b9150506121b2565b606080606060008060076000878152602001908152602001600020905080600001816002018260030183600401548380548060200260200160405190810160405280929190818152602001828054801561239157602002820191906000526020600020905b81546001600160a01b03168152600190910190602001808311612373575b505050505093508280546123a49061457d565b80601f01602080910402602001604051908101604052809291908181526020018280546123d09061457d565b801561241d5780601f106123f25761010080835404028352916020019161241d565b820191906000526020600020905b81548152906001019060200180831161240057829003601f168201915b505050505092508180546124309061457d565b80601f016020809104026020016040519081016040528092919081815260200182805461245c9061457d565b80156124a95780601f1061247e576101008083540402835291602001916124a9565b820191906000526020600020905b81548152906001019060200180831161248c57829003601f168201915b505050505091509450945094509450509193509193565b6060600c805480602002602001604051908101604052809291908181526020016000905b828210156125f05760008481526020908190206040805160e081019091526007850290910180546001600160a01b03168252600181018054929391929184019161252d9061457d565b80601f01602080910402602001604051908101604052809291908181526020018280546125599061457d565b80156125a65780601f1061257b576101008083540402835291602001916125a6565b820191906000526020600020905b81548152906001019060200180831161258957829003601f168201915b5050505050815260200160028201548152602001600382015481526020016004820154815260200160058201548152602001600682015481525050815260200190600101906124e4565b50505050905090565b6060600180548060200260200160405190810160405280929190818152602001828054801561265157602002820191906000526020600020905b81546001600160a01b03168152600190910190602001808311612633575b5050505050905090565b600060608060606000806000606060005b600154811015612cdb5760005b600660006001848154811061269057612690614521565b60009182526020808320909101546001600160a01b03168352820192909252604001902054811015612cc8578a60066000600185815481106126d4576126d4614521565b60009182526020808320909101546001600160a01b03168352820192909252604001902080548390811061270a5761270a614521565b90600052602060002090600802016005015403612cb657600660006001848154811061273857612738614521565b60009182526020808320909101546001600160a01b03168352820192909252604001902080548290811061276e5761276e614521565b906000526020600020906008020160000160009054906101000a90046001600160a01b031660066000600185815481106127aa576127aa614521565b60009182526020808320909101546001600160a01b0316835282019290925260400190208054839081106127e0576127e0614521565b9060005260206000209060080201600101600660006001868154811061280857612808614521565b60009182526020808320909101546001600160a01b03168352820192909252604001902080548490811061283e5761283e614521565b9060005260206000209060080201600201600660006001878154811061286657612866614521565b60009182526020808320909101546001600160a01b03168352820192909252604001902080548590811061289c5761289c614521565b906000526020600020906008020160030160066000600188815481106128c4576128c4614521565b60009182526020808320909101546001600160a01b0316835282019290925260400190208054869081106128fa576128fa614521565b906000526020600020906008020160040154600660006001898154811061292357612923614521565b60009182526020808320909101546001600160a01b03168352820192909252604001902080548790811061295957612959614521565b9060005260206000209060080201600501546006600060018a8154811061298257612982614521565b60009182526020808320909101546001600160a01b0316835282019290925260400190208054889081106129b8576129b8614521565b9060005260206000209060080201600601546006600060018b815481106129e1576129e1614521565b60009182526020808320909101546001600160a01b031683528201929092526040019020805489908110612a1757612a17614521565b9060005260206000209060080201600701868054612a349061457d565b80601f0160208091040260200160405190810160405280929190818152602001828054612a609061457d565b8015612aad5780601f10612a8257610100808354040283529160200191612aad565b820191906000526020600020905b815481529060010190602001808311612a9057829003601f168201915b50505050509650858054612ac09061457d565b80601f0160208091040260200160405190810160405280929190818152602001828054612aec9061457d565b8015612b395780601f10612b0e57610100808354040283529160200191612b39565b820191906000526020600020905b815481529060010190602001808311612b1c57829003601f168201915b50505050509550848054612b4c9061457d565b80601f0160208091040260200160405190810160405280929190818152602001828054612b789061457d565b8015612bc55780601f10612b9a57610100808354040283529160200191612bc5565b820191906000526020600020905b815481529060010190602001808311612ba857829003601f168201915b5050505050945080805480602002602001604051908101604052809291908181526020016000905b82821015612c99578382906000526020600020018054612c0c9061457d565b80601f0160208091040260200160405190810160405280929190818152602001828054612c389061457d565b8015612c855780601f10612c5a57610100808354040283529160200191612c85565b820191906000526020600020905b815481529060010190602001808311612c6857829003601f168201915b505050505081526020019060010190612bed565b505050509050995099509950995099509950995099505050612cdd565b80612cc081614564565b915050612679565b5080612cd381614564565b91505061266c565b505b919395975091939597565b600360205260009081526040902080546001820180546001600160a01b039092169291612d149061457d565b80601f0160208091040260200160405190810160405280929190818152602001828054612d409061457d565b8015612d8d5780601f10612d6257610100808354040283529160200191612d8d565b820191906000526020600020905b815481529060010190602001808311612d7057829003601f168201915b5050505050908060020154908060030154908060040154908060050154908060060154905087565b6001600160a01b03808216600090815260036020526040902054606091839116612df15760405162461bcd60e51b8152600401610675906144a0565b6001600160a01b03831660009081526003602090815260409182902060070180548351818402810184019094528084529091830182828015612e5c57602002820191906000526020600020905b81546001600160a01b03168152600190910190602001808311612e3e575b5050505050915050919050565b81612e7481336139fe565b612e905760405162461bcd60e51b8152600401610675906148c5565b600083815260076020908152604080832043845260018101909252909120612eb88482614615565b507f04f05716f2a71826f9fb2de2e8e652fa813602db4ea3774e0283f75d598de4cb843385604051612eec9392919061490e565b60405180910390a150505050565b60003411612f4a5760405162461bcd60e51b815260206004820152601f60248201527f416d6f756e742073686f756c642062652067726561746572207468616e2030006044820152606401610675565b600080546040516001600160a01b039091169034908381818185875af1925050503d8060008114612f97576040519150601f19603f3d011682016040523d82523d6000602084013e612f9c565b606091505b5050905080612fdf5760405162461bcd60e51b815260206004820152600f60248201526e151c985b9cd9995c8819985a5b1959608a1b6044820152606401610675565b50565b6001600160a01b03811660009081526003602090815260409182902060080180548351818402810184019094528084526060939283018282801561304f57602002820191906000526020600020905b81546001600160a01b03168152600190910190602001808311613031575b50505050509050919050565b60006130673385613967565b905060006040518060600160405280336001600160a01b0316815260200142815260200185858080601f0160208091040260200160405190810160405280939291908181526020018383808284376000920182905250939094525050848152600b6020908152604080832080546001808201835591855293839020865160039095020180546001600160a01b0319166001600160a01b0390951694909417845591850151918301919091558301519293508392909150600282019061312c9082614615565b5050505050505050565b336000908152600360205260409020546001600160a01b031661316b5760405162461bcd60e51b81526004016106759061444b565b6040805160008152602081018083528151902088928892613190918591859101614728565b60405160208183030381529060405280519060200120036131f35760405162461bcd60e51b815260206004820152601e60248201527f4552524f523a203c496e7075742063616e6e6f7420626520656d7074793e00006044820152606401610675565b6009805490600061320383614564565b9091555050600954604080516101008101825233815281516020601f8c018190048102820181019093528a815260009280830191908d908d9081908401838280828437600092019190915250505090825250604080516020601f8c018190048102820181019092528a815291810191908b908b9081908401838280828437600092019190915250505090825250604080516020601f8a01819004810282018101909252888152918101919089908990819084018382808284376000920182905250938552505042602084015250604082018590526060820181905260809091019060405190808252806020026020018201604052801561331757816020015b60608152602001906001900390816133025790505b50905280516001600160a01b039081166000908152600660209081526040822080546001808201835591845292829020855160089094020180546001600160a01b0319169390941692909217835583015192935083929082019061337b9082614615565b50604082015160028201906133909082614615565b50606082015160038201906133a59082614615565b506080820151600482015560a0820151600582015560c0820151600682015560e082015180516133df916007840191602090910190613b93565b505081516001600160a01b03166000908152600360205260408120600401805492509061340b83614564565b919050555050505050505050505050565b600081815260076020526040902061343482336139fe565b156134815760405162461bcd60e51b815260206004820152601860248201527f5573657220697320616c72656164792061206d656d62657200000000000000006044820152606401610675565b80546001810182556000828152602090200180546001600160a01b031916339081179091556040517fb862ff571a9978e20d10b8fde04ebd930f5066e38fca239d86913ad22169ddec916134e9918591909182526001600160a01b0316602082015260400190565b60405180910390a15050565b60608161350281336139fe565b61351e5760405162461bcd60e51b8152600401610675906148c5565b6000838152600760205260408120904390816001600160401b0381111561354757613547613c6e565b60405190808252806020026020018201604052801561357a57816020015b60608152602001906001900390816135655790505b50905060005b82811015613651576000818152600185016020526040902080546135a39061457d565b80601f01602080910402602001604051908101604052809291908181526020018280546135cf9061457d565b801561361c5780601f106135f15761010080835404028352916020019161361c565b820191906000526020600020905b8154815290600101906020018083116135ff57829003601f168201915b505050505082828151811061363357613633614521565b6020026020010181905250808061364990614564565b915050613580565b5095945050505050565b336000908152600360205260409020546001600160a01b03166136905760405162461bcd60e51b81526004016106759061444b565b60005b6001548110156120775760005b60066000600184815481106136b7576136b7614521565b60009182526020808320909101546001600160a01b031683528201929092526040019020548110156137cf578260066000600185815481106136fb576136fb614521565b60009182526020808320909101546001600160a01b03168352820192909252604001902080548390811061373157613731614521565b906000526020600020906008020160050154036137bd57600660006001848154811061375f5761375f614521565b60009182526020808320909101546001600160a01b03168352820192909252604001902080548290811061379557613795614521565b6000918252602082206006600890920201018054916137b38361454d565b91905055506137cf565b806137c781614564565b9150506136a0565b50806137da81614564565b915050613693565b336000908152600360205260409020546001600160a01b03166138175760405162461bcd60e51b81526004016106759061444b565b60005b600154811015610a4c5760005b600660006001848154811061383e5761383e614521565b60009182526020808320909101546001600160a01b031683528201929092526040019020548110156139545784600660006001858154811061388257613882614521565b60009182526020808320909101546001600160a01b0316835282019290925260400190208054839081106138b8576138b8614521565b9060005260206000209060080201600501540361394257838360066000600186815481106138e8576138e8614521565b60009182526020808320909101546001600160a01b03168352820192909252604001902080548490811061391e5761391e614521565b9060005260206000209060080201600201918261393c92919061480c565b50613954565b8061394c81614564565b915050613827565b508061395f81614564565b91505061381a565b6000816001600160a01b0316836001600160a01b031610156139ca576040516bffffffffffffffffffffffff19606085811b8216602084015284901b1660348201526048015b6040516020818303038152906040528051906020012090506139f8565b6040516bffffffffffffffffffffffff19606084811b8216602084015285901b1660348201526048016139ad565b92915050565b6000828152600760205260408120815b8154811015613a6d57836001600160a01b0316826000018281548110613a3657613a36614521565b6000918252602090912001546001600160a01b031603613a5b576001925050506139f8565b80613a6581614564565b915050613a0e565b506000949350505050565b508054613a849061457d565b6000825580601f10613a94575050565b601f016020900490600052602060002090810190612fdf9190613be5565b5080546000825590600052602060002090810190612fdf9190613be5565b5080546000825590600052602060002090810190612fdf9190613bfa565b828054828255906000526020600020908101928215613b43579160200282015b82811115613b4357825182546001600160a01b0319166001600160a01b03909116178255602090920191600190910190613b0e565b50613b4f929150613be5565b5090565b828054828255906000526020600020908101928215613b435760005260206000209182015b82811115613b43578254825591600101919060010190613b78565b828054828255906000526020600020908101928215613bd9579160200282015b82811115613bd95782518290613bc99082614615565b5091602001919060010190613bb3565b50613b4f929150613bfa565b5b80821115613b4f5760008155600101613be6565b80821115613b4f576000613c0e8282613a78565b50600101613bfa565b80356001600160a01b0381168114613c2e57600080fd5b919050565b600060208284031215613c4557600080fd5b613c4e82613c17565b9392505050565b600060208284031215613c6757600080fd5b5035919050565b634e487b7160e01b600052604160045260246000fd5b600082601f830112613c9557600080fd5b81356001600160401b0380821115613caf57613caf613c6e565b604051601f8301601f19908116603f01168101908282118183101715613cd757613cd7613c6e565b81604052838152866020858801011115613cf057600080fd5b836020870160208301376000602085830101528094505050505092915050565b60008060408385031215613d2357600080fd5b82356001600160401b0380821115613d3a57600080fd5b613d4686838701613c84565b93506020850135915080821115613d5c57600080fd5b50613d6985828601613c84565b9150509250929050565b6020808252825182820181905260009190848201906040850190845b81811015613dab57835183529284019291840191600101613d8f565b50909695505050505050565b6000815180845260005b81811015613ddd57602081850181015186830182015201613dc1565b506000602082860101526020601f19601f83011685010191505092915050565b60006020808301818452808551808352604092508286019150828160051b87010184880160005b83811015613e7757888303603f19018552815180516001600160a01b0316845287810151888501528601516060878501819052613e6381860183613db7565b968901969450505090860190600101613e24565b509098975050505050505050565b600081518084526020808501808196508360051b8101915082860160005b85811015613ecd578284038952613ebb848351613db7565b98850198935090840190600101613ea3565b5091979650505050505050565b60006020808301818452808551808352604092508286019150828160051b87010184880160005b83811015613e7757888303603f19018552815180516001600160a01b0316845261010088820151818a870152613f3982870182613db7565b9150508782015185820389870152613f518282613db7565b91505060608083015186830382880152613f6b8382613db7565b6080858101519089015260a0808601519089015260c0808601519089015260e094850151888203958901959095529250613fa9915082905083613e85565b968901969450505090860190600101613f01565b60008083601f840112613fcf57600080fd5b5081356001600160401b03811115613fe657600080fd5b602083019150836020828501011115613ffe57600080fd5b9250929050565b6000806020838503121561401857600080fd5b82356001600160401b0381111561402e57600080fd5b61403a85828601613fbd565b90969095509350505050565b6060815260006140596060830186613db7565b828103602084015261406b8186613db7565b915050826040830152949350505050565b60008060006040848603121561409157600080fd5b83356001600160401b038111156140a757600080fd5b6140b386828701613fbd565b909790965060209590950135949350505050565b600081518084526020808501945080840160005b838110156141005781516001600160a01b0316875295820195908201906001016140db565b509495945050505050565b60808152600061411e60808301876140c7565b82810360208401526141308187613db7565b905082810360408401526141448186613db7565b91505082606083015295945050505050565b60006020808301818452808551808352604092508286019150828160051b87010184880160005b83811015613e7757888303603f19018552815180516001600160a01b031684528781015160e0898601819052906141b682870182613db7565b838a0151878b0152606080850151908801526080808501519088015260a0808501519088015260c09384015193909601929092525050938601939086019060010161417d565b602081526000613c4e60208301846140c7565b6001600160a01b0389168152610100602082018190526000906142348382018b613db7565b90508281036040840152614248818a613db7565b9050828103606084015261425c8189613db7565b90508660808401528560a08401528460c084015282810360e08401526142828185613e85565b9b9a5050505050505050505050565b6001600160a01b038816815260e0602082018190526000906142b590830189613db7565b6040830197909752506060810194909452608084019290925260a083015260c09091015292915050565b600080604083850312156142f257600080fd5b8235915060208301356001600160401b0381111561430f57600080fd5b613d6985828601613c84565b60008060006040848603121561433057600080fd5b61433984613c17565b925060208401356001600160401b0381111561435457600080fd5b61436086828701613fbd565b9497909650939450505050565b6000806000806000806060878903121561438657600080fd5b86356001600160401b038082111561439d57600080fd5b6143a98a838b01613fbd565b909850965060208901359150808211156143c257600080fd5b6143ce8a838b01613fbd565b909650945060408901359150808211156143e757600080fd5b506143f489828a01613fbd565b979a9699509497509295939492505050565b602081526000613c4e6020830184613e85565b60008060006040848603121561442e57600080fd5b8335925060208401356001600160401b0381111561435457600080fd5b60208082526035908201527f4552524f523a203c4d7573742063726561746520612070726f66696c6520746f604082015274103832b93337b936903a3434b99030b1ba34b7b71f60591b606082015260800190565b6020808252601f908201527f4552524f523a203c50726f66696c6520646f6573206e6f742065786973743e00604082015260600190565b6020808252602a908201527f4552524f52203c596f752063616e6e6f7420666f6c6c6f772f756e666f6c6c6f6040820152693b903cb7bab939b2b63360b11b606082015260800190565b634e487b7160e01b600052603260045260246000fd5b634e487b7160e01b600052601160045260246000fd5b60008161455c5761455c614537565b506000190190565b60006001820161457657614576614537565b5060010190565b600181811c9082168061459157607f821691505b602082108103610d9a57634e487b7160e01b600052602260045260246000fd5b601f8211156145fb57600081815260208120601f850160051c810160208610156145d85750805b601f850160051c820191505b818110156145f7578281556001016145e4565b5050505b505050565b600019600383901b1c191660019190911b1790565b81516001600160401b0381111561462e5761462e613c6e565b6146428161463c845461457d565b846145b1565b602080601f831160018114614671576000841561465f5750858301515b6146698582614600565b8655506145f7565b600085815260208120601f198616915b828110156146a057888601518255948401946001909101908401614681565b50858210156146be5787850151600019600388901b60f8161c191681555b5050505050600190811b01905550565b8481526001600160a01b03841660208201526080604082018190526000906146f890830185613db7565b828103606084015261470a8185613db7565b979650505050505050565b808201808211156139f8576139f8614537565b8183823760009101908152919050565b818103614743575050565b61474d825461457d565b6001600160401b0381111561476457614764613c6e565b6147728161463c845461457d565b6000601f8211600181146147a0576000831561478e5750848201545b6147988482614600565b855550614805565b600085815260209020601f19841690600086815260209020845b838110156147da57828601548255600195860195909101906020016147ba565b50858310156147f85781850154600019600388901b60f8161c191681555b50505060018360011b0184555b5050505050565b6001600160401b0383111561482357614823613c6e565b61483783614831835461457d565b836145b1565b6000601f84116001811461486557600085156148535750838201355b61485d8682614600565b845550614805565b600083815260209020601f19861690835b828110156148965786850135825560209485019460019092019101614876565b50868210156148b35760001960f88860031b161c19848701351681555b505060018560011b0183555050505050565b60208082526029908201527f4f6e6c792067726f7570206d656d626572732063616e2063616c6c207468697360408201526810333ab731ba34b7b760b91b606082015260800190565b8381526001600160a01b038316602082015260606040820181905260009061493890830184613db7565b9594505050505056fea26469706673582212206f6be23eb55d899800560af93f0b9a913c3f5f8d6f8c9521f94936ecac3419de64736f6c63430008130033",
  "linkReferences": {},
  "deployedLinkReferences": {}
}